{
  "contractName": "Demo",
  "abi": [
    {
      "constant": true,
      "inputs": [],
      "name": "readTheNumber",
      "outputs": [
        {
          "name": "",
          "type": "uint256"
        }
      ],
      "payable": false,
      "stateMutability": "view",
      "type": "function",
      "signature": "0x4f74039f"
    },
    {
      "constant": false,
      "inputs": [],
      "name": "incrementTheNumber",
      "outputs": [],
      "payable": false,
      "stateMutability": "nonpayable",
      "type": "function",
      "signature": "0x7dd434bf"
    },
    {
      "constant": false,
      "inputs": [
        {
          "name": "s",
          "type": "string"
        }
      ],
      "name": "setPublicMessage",
      "outputs": [],
      "payable": false,
      "stateMutability": "nonpayable",
      "type": "function",
      "signature": "0x60aadf23"
    },
    {
      "constant": true,
      "inputs": [],
      "name": "readPublicMessage",
      "outputs": [
        {
          "name": "",
          "type": "string"
        }
      ],
      "payable": false,
      "stateMutability": "view",
      "type": "function",
      "signature": "0x3a665f1e"
    },
    {
      "constant": false,
      "inputs": [
        {
          "name": "s",
          "type": "string"
        }
      ],
      "name": "setPersonalMessage",
      "outputs": [],
      "payable": false,
      "stateMutability": "nonpayable",
      "type": "function",
      "signature": "0xc8e5372a"
    },
    {
      "constant": true,
      "inputs": [],
      "name": "readPersonalMessage",
      "outputs": [
        {
          "name": "",
          "type": "string"
        }
      ],
      "payable": false,
      "stateMutability": "view",
      "type": "function",
      "signature": "0x82229d91"
    }
  ],
  "bytecode": "0x60806040526000805534801561001457600080fd5b5061064e806100246000396000f3fe608060405260043610610078576000357c0100000000000000000000000000000000000000000000000000000000900463ffffffff1680633a665f1e1461007d5780634f74039f1461010d57806360aadf23146101385780637dd434bf1461020057806382229d9114610217578063c8e5372a146102a7575b600080fd5b34801561008957600080fd5b5061009261036f565b6040518080602001828103825283818151815260200191508051906020019080838360005b838110156100d25780820151818401526020810190506100b7565b50505050905090810190601f1680156100ff5780820380516001836020036101000a031916815260200191505b509250505060405180910390f35b34801561011957600080fd5b50610122610411565b6040518082815260200191505060405180910390f35b34801561014457600080fd5b506101fe6004803603602081101561015b57600080fd5b810190808035906020019064010000000081111561017857600080fd5b82018360208201111561018a57600080fd5b803590602001918460018302840111640100000000831117156101ac57600080fd5b91908080601f016020809104026020016040519081016040528093929190818152602001838380828437600081840152601f19601f82011690508083019250505050505050919291929050505061041a565b005b34801561020c57600080fd5b50610215610434565b005b34801561022357600080fd5b5061022c610447565b6040518080602001828103825283818151815260200191508051906020019080838360005b8381101561026c578082015181840152602081019050610251565b50505050905090810190601f1680156102995780820380516001836020036101000a031916815260200191505b509250505060405180910390f35b3480156102b357600080fd5b5061036d600480360360208110156102ca57600080fd5b81019080803590602001906401000000008111156102e757600080fd5b8201836020820111156102f957600080fd5b8035906020019184600183028401116401000000008311171561031b57600080fd5b91908080601f016020809104026020016040519081016040528093929190818152602001838380828437600081840152601f19601f820116905080830192505050505050509192919290505050610526565b005b606060028054600181600116156101000203166002900480601f0160208091040260200160405190810160405280929190818152602001828054600181600116156101000203166002900480156104075780601f106103dc57610100808354040283529160200191610407565b820191906000526020600020905b8154815290600101906020018083116103ea57829003601f168201915b5050505050905090565b60008054905090565b806002908051906020019061043092919061057d565b5050565b6000808154809291906001019190505550565b6060600160003373ffffffffffffffffffffffffffffffffffffffff1673ffffffffffffffffffffffffffffffffffffffff1681526020019081526020016000208054600181600116156101000203166002900480601f01602080910402602001604051908101604052809291908181526020018280546001816001161561010002031660029004801561051c5780601f106104f15761010080835404028352916020019161051c565b820191906000526020600020905b8154815290600101906020018083116104ff57829003601f168201915b5050505050905090565b80600160003373ffffffffffffffffffffffffffffffffffffffff1673ffffffffffffffffffffffffffffffffffffffff168152602001908152602001600020908051906020019061057992919061057d565b5050565b828054600181600116156101000203166002900490600052602060002090601f016020900481019282601f106105be57805160ff19168380011785556105ec565b828001600101855582156105ec579182015b828111156105eb5782518255916020019190600101906105d0565b5b5090506105f991906105fd565b5090565b61061f91905b8082111561061b576000816000905550600101610603565b5090565b9056fea165627a7a72305820b3c4113a3b4a4c596607e1204f5f6742f0cb1900c5a783b73c5704ba8a6bbd990029",
  "source": "pragma solidity ^0.5.0;\r\n\r\ncontract Demo {\r\n\r\n    uint theNumber = 0;\r\n\r\n    mapping (address => string) personalMessage;\r\n    string publicMessage;\r\n\r\n    function readTheNumber () public view returns (uint) {\r\n        return theNumber;\r\n    }\r\n\r\n    function incrementTheNumber () public {\r\n        theNumber++;\r\n    }\r\n\r\n    function setPublicMessage (string memory s) public {\r\n        publicMessage = s;\r\n    }\r\n\r\n    function readPublicMessage () public view returns (string memory) {\r\n        return publicMessage;\r\n    }\r\n\r\n    function setPersonalMessage (string memory s) public {\r\n        personalMessage[msg.sender] = s;\r\n    }\r\n\r\n    function readPersonalMessage () public view returns (string memory) {\r\n        return personalMessage[msg.sender];\r\n    }\r\n}",
  "sourcePath": "C:/Users/ryanp/documents/projects/artificer/contracts/demo.sol",
  "compiler": {
    "name": "solc",
    "version": "0.5.0+commit.1d4f565a.Emscripten.clang"
  },
  "schemaVersion": "3.0.0",
  "updatedAt": "2018-12-22T07:01:44.215Z",
  "devdoc": {
    "methods": {}
  },
  "userdoc": {
    "methods": {}
  }
}