{
  "contractName": "DoctorClaims",
  "abi": [
    {
      "constant": true,
      "inputs": [],
      "name": "initialized",
      "outputs": [
        {
          "name": "",
          "type": "bool"
        }
      ],
      "payable": false,
      "stateMutability": "view",
      "type": "function"
    },
    {
      "constant": true,
      "inputs": [
        {
          "name": "",
          "type": "address"
        }
      ],
      "name": "requesterStake",
      "outputs": [
        {
          "name": "",
          "type": "uint256"
        }
      ],
      "payable": false,
      "stateMutability": "view",
      "type": "function"
    },
    {
      "constant": true,
      "inputs": [
        {
          "name": "",
          "type": "address"
        }
      ],
      "name": "treatmentTokenBalances",
      "outputs": [
        {
          "name": "",
          "type": "uint256"
        }
      ],
      "payable": false,
      "stateMutability": "view",
      "type": "function"
    },
    {
      "constant": false,
      "inputs": [],
      "name": "renounceOwnership",
      "outputs": [],
      "payable": false,
      "stateMutability": "nonpayable",
      "type": "function"
    },
    {
      "constant": true,
      "inputs": [
        {
          "name": "",
          "type": "address"
        }
      ],
      "name": "verifierRequester",
      "outputs": [
        {
          "name": "",
          "type": "address"
        }
      ],
      "payable": false,
      "stateMutability": "view",
      "type": "function"
    },
    {
      "constant": true,
      "inputs": [],
      "name": "owner",
      "outputs": [
        {
          "name": "",
          "type": "address"
        }
      ],
      "payable": false,
      "stateMutability": "view",
      "type": "function"
    },
    {
      "constant": true,
      "inputs": [
        {
          "name": "",
          "type": "address"
        }
      ],
      "name": "verifierClaims",
      "outputs": [
        {
          "name": "",
          "type": "uint256"
        }
      ],
      "payable": false,
      "stateMutability": "view",
      "type": "function"
    },
    {
      "constant": false,
      "inputs": [
        {
          "name": "_newOwner",
          "type": "address"
        }
      ],
      "name": "transferOwnership",
      "outputs": [],
      "payable": false,
      "stateMutability": "nonpayable",
      "type": "function"
    },
    {
      "payable": true,
      "stateMutability": "payable",
      "type": "fallback"
    },
    {
      "anonymous": false,
      "inputs": [
        {
          "indexed": true,
          "name": "doctor",
          "type": "address"
        },
        {
          "indexed": false,
          "name": "reimbursement",
          "type": "uint256"
        }
      ],
      "name": "claimCreated",
      "type": "event"
    },
    {
      "anonymous": false,
      "inputs": [
        {
          "indexed": true,
          "name": "previousOwner",
          "type": "address"
        }
      ],
      "name": "OwnershipRenounced",
      "type": "event"
    },
    {
      "anonymous": false,
      "inputs": [
        {
          "indexed": true,
          "name": "previousOwner",
          "type": "address"
        },
        {
          "indexed": true,
          "name": "newOwner",
          "type": "address"
        }
      ],
      "name": "OwnershipTransferred",
      "type": "event"
    },
    {
      "constant": false,
      "inputs": [
        {
          "name": "_registry",
          "type": "address"
        },
        {
          "name": "",
          "type": "bytes32"
        }
      ],
      "name": "initializeTarget",
      "outputs": [],
      "payable": false,
      "stateMutability": "nonpayable",
      "type": "function"
    },
    {
      "constant": false,
      "inputs": [
        {
          "name": "_registry",
          "type": "address"
        }
      ],
      "name": "setRegistryAddress",
      "outputs": [],
      "payable": false,
      "stateMutability": "nonpayable",
      "type": "function"
    },
    {
      "constant": false,
      "inputs": [
        {
          "name": "_verifier",
          "type": "address"
        },
        {
          "name": "_patient",
          "type": "address"
        },
        {
          "name": "_reimbursement",
          "type": "uint256"
        }
      ],
      "name": "createClaim",
      "outputs": [],
      "payable": true,
      "stateMutability": "payable",
      "type": "function"
    },
    {
      "constant": false,
      "inputs": [],
      "name": "approveClaim",
      "outputs": [],
      "payable": false,
      "stateMutability": "nonpayable",
      "type": "function"
    },
    {
      "constant": false,
      "inputs": [],
      "name": "denyClaim",
      "outputs": [],
      "payable": false,
      "stateMutability": "nonpayable",
      "type": "function"
    },
    {
      "constant": true,
      "inputs": [],
      "name": "getContractBalance",
      "outputs": [
        {
          "name": "",
          "type": "uint256"
        }
      ],
      "payable": false,
      "stateMutability": "view",
      "type": "function"
    },
    {
      "constant": false,
      "inputs": [
        {
          "name": "_requester",
          "type": "address"
        },
        {
          "name": "_stake",
          "type": "uint256"
        }
      ],
      "name": "transferContractBalance",
      "outputs": [],
      "payable": false,
      "stateMutability": "nonpayable",
      "type": "function"
    }
  ],
  "bytecode": "0x608060405260008060146101000a81548160ff021916908315150217905550336000806101000a81548173ffffffffffffffffffffffffffffffffffffffff021916908373ffffffffffffffffffffffffffffffffffffffff160217905550611d588061006d6000396000f3006080604052600436106100db576000357c0100000000000000000000000000000000000000000000000000000000900463ffffffff16806310a5a3d9146100dd578063158ef93e1461012a57806328dd2e86146101595780632a79fbd9146101b05780636f9fb98a14610207578063715018a6146102325780637e63a4c7146102495780637f2c34c3146102cc5780638aff0cd3146102e35780638da5cb5b1461033457806392f2852c1461038b578063a0470cb4146103eb578063ab7b499314610402578063d158673314610445578063f2fde38b1461049c575b005b3480156100e957600080fd5b50610128600480360381019080803573ffffffffffffffffffffffffffffffffffffffff169060200190929190803590602001909291905050506104df565b005b34801561013657600080fd5b5061013f6105cf565b604051808215151515815260200191505060405180910390f35b34801561016557600080fd5b5061019a600480360381019080803573ffffffffffffffffffffffffffffffffffffffff1690602001909291905050506105e2565b6040518082815260200191505060405180910390f35b3480156101bc57600080fd5b506101f1600480360381019080803573ffffffffffffffffffffffffffffffffffffffff1690602001909291905050506105fa565b6040518082815260200191505060405180910390f35b34801561021357600080fd5b5061021c610612565b6040518082815260200191505060405180910390f35b34801561023e57600080fd5b50610247610631565b005b34801561025557600080fd5b5061028a600480360381019080803573ffffffffffffffffffffffffffffffffffffffff169060200190929190505050610733565b604051808273ffffffffffffffffffffffffffffffffffffffff1673ffffffffffffffffffffffffffffffffffffffff16815260200191505060405180910390f35b3480156102d857600080fd5b506102e1610766565b005b3480156102ef57600080fd5b50610332600480360381019080803573ffffffffffffffffffffffffffffffffffffffff1690602001909291908035600019169060200190929190505050610932565b005b34801561034057600080fd5b50610349610bf3565b604051808273ffffffffffffffffffffffffffffffffffffffff1673ffffffffffffffffffffffffffffffffffffffff16815260200191505060405180910390f35b6103e9600480360381019080803573ffffffffffffffffffffffffffffffffffffffff169060200190929190803573ffffffffffffffffffffffffffffffffffffffff16906020019092919080359060200190929190505050610c18565b005b3480156103f757600080fd5b5061040061134b565b005b34801561040e57600080fd5b50610443600480360381019080803573ffffffffffffffffffffffffffffffffffffffff169060200190929190505050611899565b005b34801561045157600080fd5b50610486600480360381019080803573ffffffffffffffffffffffffffffffffffffffff1690602001909291905050506118dd565b6040518082815260200191505060405180910390f35b3480156104a857600080fd5b506104dd600480360381019080803573ffffffffffffffffffffffffffffffffffffffff1690602001909291905050506118f5565b005b806104e8610612565b10151515610584576040517f08c379a00000000000000000000000000000000000000000000000000000000081526004018080602001828103825260288152602001807f436f6e74726163742062616c616e6365206973206c657373207468616e20746881526020017f65205f7374616b6500000000000000000000000000000000000000000000000081525060400191505060405180910390fd5b8173ffffffffffffffffffffffffffffffffffffffff166108fc829081150290604051600060405180830381858888f193505050501580156105ca573d6000803e3d6000fd5b505050565b600060149054906101000a900460ff1681565b60036020528060005260406000206000915090505481565b60056020528060005260406000206000915090505481565b60003073ffffffffffffffffffffffffffffffffffffffff1631905090565b6000809054906101000a900473ffffffffffffffffffffffffffffffffffffffff1673ffffffffffffffffffffffffffffffffffffffff163373ffffffffffffffffffffffffffffffffffffffff1614151561068c57600080fd5b6000809054906101000a900473ffffffffffffffffffffffffffffffffffffffff1673ffffffffffffffffffffffffffffffffffffffff167ff8df31144d9c2f0f6b59d69b8b98abd5459d07f2742c4df920b25aae33c6482060405160405180910390a260008060006101000a81548173ffffffffffffffffffffffffffffffffffffffff021916908373ffffffffffffffffffffffffffffffffffffffff160217905550565b60026020528060005260406000206000915054906101000a900473ffffffffffffffffffffffffffffffffffffffff1681565b600080339150600260008373ffffffffffffffffffffffffffffffffffffffff1673ffffffffffffffffffffffffffffffffffffffff16815260200190815260200160002060009054906101000a900473ffffffffffffffffffffffffffffffffffffffff1690506000600160008473ffffffffffffffffffffffffffffffffffffffff1673ffffffffffffffffffffffffffffffffffffffff168152602001908152602001600020541415801561084b5750600073ffffffffffffffffffffffffffffffffffffffff168173ffffffffffffffffffffffffffffffffffffffff1614155b15156108e5576040517f08c379a00000000000000000000000000000000000000000000000000000000081526004018080602001828103825260218152602001807f566572696669657220646f6573206e6f74206861766520616e7920636c61696d81526020017f730000000000000000000000000000000000000000000000000000000000000081525060400191505060405180910390fd5b61092e82600360008473ffffffffffffffffffffffffffffffffffffffff1673ffffffffffffffffffffffffffffffffffffffff168152602001908152602001600020546104df565b5050565b600060149054906101000a900460ff161515156109b7576040517f08c379a00000000000000000000000000000000000000000000000000000000081526004018080602001828103825260178152602001807f6d757374206e6f7420626520696e697469616c697a656400000000000000000081525060200191505060405180910390fd5b600073ffffffffffffffffffffffffffffffffffffffff168273ffffffffffffffffffffffffffffffffffffffff1614151515610a5c576040517f08c379a00000000000000000000000000000000000000000000000000000000081526004018080602001828103825260158152602001807f7265676973747279206973206e6f7420626c616e6b000000000000000000000081525060200191505060405180910390fd5b81600460006101000a81548173ffffffffffffffffffffffffffffffffffffffff021916908373ffffffffffffffffffffffffffffffffffffffff160217905550336000806101000a81548173ffffffffffffffffffffffffffffffffffffffff021916908373ffffffffffffffffffffffffffffffffffffffff160217905550610ae561195c565b506000600160008073ffffffffffffffffffffffffffffffffffffffff1673ffffffffffffffffffffffffffffffffffffffff168152602001908152602001600020819055506000600260008073ffffffffffffffffffffffffffffffffffffffff1673ffffffffffffffffffffffffffffffffffffffff16815260200190815260200160002060006101000a81548173ffffffffffffffffffffffffffffffffffffffff021916908373ffffffffffffffffffffffffffffffffffffffff1602179055506000600360008073ffffffffffffffffffffffffffffffffffffffff1673ffffffffffffffffffffffffffffffffffffffff168152602001908152602001600020819055505050565b6000809054906101000a900473ffffffffffffffffffffffffffffffffffffffff1681565b6000610c5b600460009054906101000a900473ffffffffffffffffffffffffffffffffffffffff1673ffffffffffffffffffffffffffffffffffffffff16611a04565b73ffffffffffffffffffffffffffffffffffffffff1663996440c6856040518263ffffffff167c0100000000000000000000000000000000000000000000000000000000028152600401808273ffffffffffffffffffffffffffffffffffffffff1673ffffffffffffffffffffffffffffffffffffffff168152602001915050602060405180830381600087803b158015610cf557600080fd5b505af1158015610d09573d6000803e3d6000fd5b505050506040513d6020811015610d1f57600080fd5b81019080805190602001909291905050501515610dca576040517f08c379a00000000000000000000000000000000000000000000000000000000081526004018080602001828103825260248152602001807f5665726966696572206973206e6f74207265676973746572656420696e20737981526020017f7374656d0000000000000000000000000000000000000000000000000000000081525060400191505060405180910390fd5b610e0b600460009054906101000a900473ffffffffffffffffffffffffffffffffffffffff1673ffffffffffffffffffffffffffffffffffffffff16611a04565b73ffffffffffffffffffffffffffffffffffffffff1663996440c6336040518263ffffffff167c0100000000000000000000000000000000000000000000000000000000028152600401808273ffffffffffffffffffffffffffffffffffffffff1673ffffffffffffffffffffffffffffffffffffffff168152602001915050602060405180830381600087803b158015610ea557600080fd5b505af1158015610eb9573d6000803e3d6000fd5b505050506040513d6020811015610ecf57600080fd5b81019080805190602001909291905050501515610f7a576040517f08c379a00000000000000000000000000000000000000000000000000000000081526004018080602001828103825260258152602001807f526571756573746572206973206e6f74207265676973746572656420696e207381526020017f797374656d00000000000000000000000000000000000000000000000000000081525060400191505060405180910390fd5b610fbb600460009054906101000a900473ffffffffffffffffffffffffffffffffffffffff1673ffffffffffffffffffffffffffffffffffffffff16611af4565b73ffffffffffffffffffffffffffffffffffffffff16638f9c79ed846040518263ffffffff167c0100000000000000000000000000000000000000000000000000000000028152600401808273ffffffffffffffffffffffffffffffffffffffff1673ffffffffffffffffffffffffffffffffffffffff168152602001915050602060405180830381600087803b15801561105557600080fd5b505af1158015611069573d6000803e3d6000fd5b505050506040513d602081101561107f57600080fd5b8101908080519060200190929190505050151561112a576040517f08c379a00000000000000000000000000000000000000000000000000000000081526004018080602001828103825260238152602001807f50617469656e74206973206e6f74207265676973746572656420696e2073797381526020017f74656d000000000000000000000000000000000000000000000000000000000081525060400191505060405180910390fd5b6111516064611143600285611be490919063ffffffff16565b611c1c90919063ffffffff16565b90508034101515156111f1576040517f08c379a000000000000000000000000000000000000000000000000000000000815260040180806020018281038252602d8152602001807f616d6f756e74206f662045746820706173736564206e6f74206173206d75636881526020017f20617320746865205374616b650000000000000000000000000000000000000081525060400191505060405180910390fd5b81600160008673ffffffffffffffffffffffffffffffffffffffff1673ffffffffffffffffffffffffffffffffffffffff1681526020019081526020016000208190555033600260008673ffffffffffffffffffffffffffffffffffffffff1673ffffffffffffffffffffffffffffffffffffffff16815260200190815260200160002060006101000a81548173ffffffffffffffffffffffffffffffffffffffff021916908373ffffffffffffffffffffffffffffffffffffffff16021790555080600360003373ffffffffffffffffffffffffffffffffffffffff1673ffffffffffffffffffffffffffffffffffffffff168152602001908152602001600020819055503373ffffffffffffffffffffffffffffffffffffffff167f8d43667f52659b4e4543f9ae80d0250c29f5dfce30fc62092aafed3e9ca56fcf836040518082815260200191505060405180910390a250505050565b6000806000806000339450600260008673ffffffffffffffffffffffffffffffffffffffff1673ffffffffffffffffffffffffffffffffffffffff16815260200190815260200160002060009054906101000a900473ffffffffffffffffffffffffffffffffffffffff1693506000600160008773ffffffffffffffffffffffffffffffffffffffff1673ffffffffffffffffffffffffffffffffffffffff16815260200190815260200160002054141580156114355750600073ffffffffffffffffffffffffffffffffffffffff168473ffffffffffffffffffffffffffffffffffffffff1614155b15156114cf576040517f08c379a00000000000000000000000000000000000000000000000000000000081526004018080602001828103825260218152602001807f566572696669657220646f6573206e6f74206861766520616e7920636c61696d81526020017f730000000000000000000000000000000000000000000000000000000000000081525060400191505060405180910390fd5b61151884600360008773ffffffffffffffffffffffffffffffffffffffff1673ffffffffffffffffffffffffffffffffffffffff168152602001908152602001600020546104df565b61156b6064600160008873ffffffffffffffffffffffffffffffffffffffff1673ffffffffffffffffffffffffffffffffffffffff16815260200190815260200160002054611c1c90919063ffffffff16565b92506115d360646115c56063600160008a73ffffffffffffffffffffffffffffffffffffffff1673ffffffffffffffffffffffffffffffffffffffff16815260200190815260200160002054611be490919063ffffffff16565b611c1c90919063ffffffff16565b9150611616600460009054906101000a900473ffffffffffffffffffffffffffffffffffffffff1673ffffffffffffffffffffffffffffffffffffffff16611af4565b73ffffffffffffffffffffffffffffffffffffffff166310a5a3d986856040518363ffffffff167c0100000000000000000000000000000000000000000000000000000000028152600401808373ffffffffffffffffffffffffffffffffffffffff1673ffffffffffffffffffffffffffffffffffffffff16815260200182815260200192505050600060405180830381600087803b1580156116b857600080fd5b505af11580156116cc573d6000803e3d6000fd5b50505050611711600460009054906101000a900473ffffffffffffffffffffffffffffffffffffffff1673ffffffffffffffffffffffffffffffffffffffff16611af4565b73ffffffffffffffffffffffffffffffffffffffff166310a5a3d985846040518363ffffffff167c0100000000000000000000000000000000000000000000000000000000028152600401808373ffffffffffffffffffffffffffffffffffffffff1673ffffffffffffffffffffffffffffffffffffffff16815260200182815260200192505050600060405180830381600087803b1580156117b357600080fd5b505af11580156117c7573d6000803e3d6000fd5b50505050600160008673ffffffffffffffffffffffffffffffffffffffff1673ffffffffffffffffffffffffffffffffffffffff16815260200190815260200160002054600560008673ffffffffffffffffffffffffffffffffffffffff1673ffffffffffffffffffffffffffffffffffffffff1681526020019081526020016000205401905080600560008673ffffffffffffffffffffffffffffffffffffffff1673ffffffffffffffffffffffffffffffffffffffff168152602001908152602001600020819055505050505050565b80600460006101000a81548173ffffffffffffffffffffffffffffffffffffffff021916908373ffffffffffffffffffffffffffffffffffffffff16021790555050565b60016020528060005260406000206000915090505481565b6000809054906101000a900473ffffffffffffffffffffffffffffffffffffffff1673ffffffffffffffffffffffffffffffffffffffff163373ffffffffffffffffffffffffffffffffffffffff1614151561195057600080fd5b61195981611c32565b50565b60008060149054906101000a900460ff161515156119e2576040517f08c379a00000000000000000000000000000000000000000000000000000000081526004018080602001828103825260178152602001807f6d757374206e6f7420626520696e697469616c697a656400000000000000000081525060200191505060405180910390fd5b6001600060146101000a81548160ff0219169083151502179055506001905090565b60008173ffffffffffffffffffffffffffffffffffffffff1663f39ec1f760405180807f446f63746f724d616e6167657200000000000000000000000000000000000000815250600d01905060405180910390206040518263ffffffff167c0100000000000000000000000000000000000000000000000000000000028152600401808260001916600019168152602001915050602060405180830381600087803b158015611ab257600080fd5b505af1158015611ac6573d6000803e3d6000fd5b505050506040513d6020811015611adc57600080fd5b81019080805190602001909291905050509050919050565b60008173ffffffffffffffffffffffffffffffffffffffff1663f39ec1f760405180807f50617469656e74506f6c69637900000000000000000000000000000000000000815250600d01905060405180910390206040518263ffffffff167c0100000000000000000000000000000000000000000000000000000000028152600401808260001916600019168152602001915050602060405180830381600087803b158015611ba257600080fd5b505af1158015611bb6573d6000803e3d6000fd5b505050506040513d6020811015611bcc57600080fd5b81019080805190602001909291905050509050919050565b600080831415611bf75760009050611c16565b8183029050818382811515611c0857fe5b04141515611c1257fe5b8090505b92915050565b60008183811515611c2957fe5b04905092915050565b600073ffffffffffffffffffffffffffffffffffffffff168173ffffffffffffffffffffffffffffffffffffffff1614151515611c6e57600080fd5b8073ffffffffffffffffffffffffffffffffffffffff166000809054906101000a900473ffffffffffffffffffffffffffffffffffffffff1673ffffffffffffffffffffffffffffffffffffffff167f8be0079c531659141344cd1fd0a4f28419497f9722a3daafe3b4186f6b6457e060405160405180910390a3806000806101000a81548173ffffffffffffffffffffffffffffffffffffffff021916908373ffffffffffffffffffffffffffffffffffffffff160217905550505600a165627a7a72305820d1e7dc84da966b24fe2d21cf223a9acffb2ab9a4bf681daa26b0528bdd599e7b0029",
  "source": "pragma solidity ^0.4.23;\r\n\r\nimport \"zeppelin-solidity/contracts/ownership/Ownable.sol\";\r\nimport 'zeppelin-solidity/contracts/math/SafeMath.sol';\r\nimport \"./Initializable.sol\";\r\nimport \"./DelegateTarget.sol\";\r\nimport \"./Registry.sol\";\r\nimport \"./RegistryLookup.sol\";\r\n\r\ncontract DoctorClaims is Ownable, Initializable, DelegateTarget {\r\n\r\n  using RegistryLookup for Registry;\r\n  using SafeMath for uint256;\r\n  /*\r\n    MEMORY START\r\n    _do not_ remove any of these once they are deployed to a network (Ropsten,\r\n    Mainnet, etc.) and only append to the bottom (before the END comment)\r\n  */\r\n\r\n  mapping (address => uint256) public verifierClaims;\r\n  mapping (address => address) public verifierRequester;\r\n  mapping (address => uint256) public requesterStake;\r\n  Registry registry;\r\n\r\n  mapping (address => uint256) public treatmentTokenBalances;\r\n\r\n  /*\r\n    MEMORY END\r\n    It is safe to add new data definitions here\r\n  */\r\n\r\n  event claimCreated(address indexed doctor, uint256 reimbursement );\r\n\r\n  function () public payable {\r\n  }\r\n\r\n  function initializeTarget(address _registry, bytes32) public notInitialized {\r\n    require(_registry != address(0), 'registry is not blank');\r\n    registry = Registry(_registry);\r\n    owner = msg.sender;\r\n    setInitialized();\r\n    verifierClaims[address(0)] = 0;\r\n    verifierRequester[address(0)] = address(0);\r\n    requesterStake[address(0)] = 0;\r\n  }\r\n\r\n  function setRegistryAddress(address _registry) public {\r\n    registry = Registry(_registry);\r\n  }\r\n\r\n  // reimbursement 1000\r\n  // stake 20 - 2% is stake\r\n  // total 1020\r\n  function createClaim(address _verifier, address _patient, uint256 _reimbursement) public payable {\r\n      require(registry.doctorManager().isDoctor(_verifier), \"Verifier is not registered in system\");\r\n      require(registry.doctorManager().isDoctor(msg.sender), \"Requester is not registered in system\");\r\n      require(registry.patientPolicy().isPatient(_patient), \"Patient is not registered in system\");\r\n\r\n      uint256 stake = _reimbursement.mul(2).div(100);\r\n      require(msg.value >= stake, \"amount of Eth passed not as much as the Stake\");\r\n\r\n      verifierClaims[_verifier] = _reimbursement;\r\n      verifierRequester[_verifier] = msg.sender;\r\n      requesterStake[msg.sender] = stake;\r\n\r\n      emit claimCreated(msg.sender, _reimbursement);\r\n  }\r\n\r\n  function approveClaim() public {\r\n      address verifier = msg.sender;\r\n      address requester = verifierRequester[verifier];\r\n\r\n      require(verifierClaims[verifier] != 0 && requester != address(0), \"Verifier does not have any claims\");\r\n      transferContractBalance(requester, requesterStake[requester]);\r\n\r\n      uint256 verifierReimbursement = verifierClaims[verifier].div(100);\r\n      uint256 requesterReimbursement = verifierClaims[verifier].mul(99).div(100);\r\n\r\n      registry.patientPolicy().transferContractBalance(verifier, verifierReimbursement);\r\n      registry.patientPolicy().transferContractBalance(requester, requesterReimbursement);\r\n\r\n      uint256 newTokenBalance = treatmentTokenBalances[requester] + verifierClaims[verifier];\r\n      treatmentTokenBalances[requester] = newTokenBalance;\r\n  }\r\n\r\n  function denyClaim() public {\r\n      address verifier = msg.sender;\r\n      address requester = verifierRequester[verifier];\r\n      require(verifierClaims[verifier] != 0 && requester != address(0), \"Verifier does not have any claims\");\r\n      transferContractBalance(verifier, requesterStake[requester]);\r\n   }\r\n\r\n  function getContractBalance() public view returns (uint256) {\r\n      return address(this).balance;\r\n  }\r\n\r\n  function transferContractBalance(address _requester, uint256 _stake) public {\r\n      require(getContractBalance() >= _stake, 'Contract balance is less than the _stake');\r\n      _requester.transfer(_stake);\r\n  }\r\n\r\n\r\n}\r\n",
  "sourcePath": "C:\\Users\\ryanp\\Documents\\projects\\OpenCoverage-dApp\\contracts\\DoctorClaims.sol",
  "compiler": {
    "name": "solc",
    "version": "0.4.24+commit.e67f0147.Emscripten.clang"
  },
  "schemaVersion": "2.0.1",
  "updatedAt": "2018-11-09T03:12:42.854Z"
}