{
  "contractName": "DoctorManager",
  "abi": [
    {
      "constant": true,
      "inputs": [],
      "name": "initialized",
      "outputs": [
        {
          "name": "",
          "type": "bool"
        }
      ],
      "payable": false,
      "stateMutability": "view",
      "type": "function"
    },
    {
      "constant": true,
      "inputs": [
        {
          "name": "",
          "type": "uint256"
        }
      ],
      "name": "doctorAddresses",
      "outputs": [
        {
          "name": "",
          "type": "address"
        }
      ],
      "payable": false,
      "stateMutability": "view",
      "type": "function"
    },
    {
      "constant": false,
      "inputs": [],
      "name": "renounceOwnership",
      "outputs": [],
      "payable": false,
      "stateMutability": "nonpayable",
      "type": "function"
    },
    {
      "constant": true,
      "inputs": [],
      "name": "doctorCount",
      "outputs": [
        {
          "name": "",
          "type": "uint256"
        }
      ],
      "payable": false,
      "stateMutability": "view",
      "type": "function"
    },
    {
      "constant": true,
      "inputs": [],
      "name": "owner",
      "outputs": [
        {
          "name": "",
          "type": "address"
        }
      ],
      "payable": false,
      "stateMutability": "view",
      "type": "function"
    },
    {
      "constant": true,
      "inputs": [
        {
          "name": "",
          "type": "address"
        }
      ],
      "name": "doctorIndices",
      "outputs": [
        {
          "name": "",
          "type": "uint256"
        }
      ],
      "payable": false,
      "stateMutability": "view",
      "type": "function"
    },
    {
      "constant": true,
      "inputs": [
        {
          "name": "",
          "type": "uint256"
        }
      ],
      "name": "doctorNames",
      "outputs": [
        {
          "name": "",
          "type": "string"
        }
      ],
      "payable": false,
      "stateMutability": "view",
      "type": "function"
    },
    {
      "constant": false,
      "inputs": [
        {
          "name": "_newOwner",
          "type": "address"
        }
      ],
      "name": "transferOwnership",
      "outputs": [],
      "payable": false,
      "stateMutability": "nonpayable",
      "type": "function"
    },
    {
      "anonymous": false,
      "inputs": [
        {
          "indexed": true,
          "name": "doctor",
          "type": "address"
        }
      ],
      "name": "AddDoctor",
      "type": "event"
    },
    {
      "anonymous": false,
      "inputs": [
        {
          "indexed": true,
          "name": "doctor",
          "type": "address"
        }
      ],
      "name": "DoctorDeactivated",
      "type": "event"
    },
    {
      "anonymous": false,
      "inputs": [
        {
          "indexed": true,
          "name": "doctor",
          "type": "address"
        }
      ],
      "name": "DoctorReactivated",
      "type": "event"
    },
    {
      "anonymous": false,
      "inputs": [
        {
          "indexed": true,
          "name": "previousOwner",
          "type": "address"
        }
      ],
      "name": "OwnershipRenounced",
      "type": "event"
    },
    {
      "anonymous": false,
      "inputs": [
        {
          "indexed": true,
          "name": "previousOwner",
          "type": "address"
        },
        {
          "indexed": true,
          "name": "newOwner",
          "type": "address"
        }
      ],
      "name": "OwnershipTransferred",
      "type": "event"
    },
    {
      "constant": false,
      "inputs": [
        {
          "name": "",
          "type": "address"
        },
        {
          "name": "",
          "type": "bytes32"
        }
      ],
      "name": "initializeTarget",
      "outputs": [],
      "payable": false,
      "stateMutability": "nonpayable",
      "type": "function"
    },
    {
      "constant": false,
      "inputs": [
        {
          "name": "_doctor",
          "type": "address"
        },
        {
          "name": "_name",
          "type": "string"
        }
      ],
      "name": "addDoctor",
      "outputs": [],
      "payable": false,
      "stateMutability": "nonpayable",
      "type": "function"
    },
    {
      "constant": true,
      "inputs": [
        {
          "name": "_doctor",
          "type": "address"
        }
      ],
      "name": "isDoctor",
      "outputs": [
        {
          "name": "",
          "type": "bool"
        }
      ],
      "payable": false,
      "stateMutability": "view",
      "type": "function"
    },
    {
      "constant": true,
      "inputs": [
        {
          "name": "_doctor",
          "type": "address"
        }
      ],
      "name": "name",
      "outputs": [
        {
          "name": "",
          "type": "string"
        }
      ],
      "payable": false,
      "stateMutability": "view",
      "type": "function"
    }
  ],
  "bytecode": "0x608060405260008060146101000a81548160ff021916908315150217905550336000806101000a81548173ffffffffffffffffffffffffffffffffffffffff021916908373ffffffffffffffffffffffffffffffffffffffff1602179055506111828061006d6000396000f3006080604052600436106100ba576000357c0100000000000000000000000000000000000000000000000000000000900463ffffffff16806301984892146100bf578063158ef93e1461017b5780633ba51e7c146101aa578063715018a61461021757806378522bc41461022e5780637cf1e445146102595780638aff0cd3146102e25780638da5cb5b146103335780638dce6f9a1461038a578063996440c6146103e15780639f8cf2691461043c578063f2fde38b146104e2575b600080fd5b3480156100cb57600080fd5b50610100600480360381019080803573ffffffffffffffffffffffffffffffffffffffff169060200190929190505050610525565b6040518080602001828103825283818151815260200191508051906020019080838360005b83811015610140578082015181840152602081019050610125565b50505050905090810190601f16801561016d5780820380516001836020036101000a031916815260200191505b509250505060405180910390f35b34801561018757600080fd5b506101906105e2565b604051808215151515815260200191505060405180910390f35b3480156101b657600080fd5b506101d5600480360381019080803590602001909291905050506105f5565b604051808273ffffffffffffffffffffffffffffffffffffffff1673ffffffffffffffffffffffffffffffffffffffff16815260200191505060405180910390f35b34801561022357600080fd5b5061022c610628565b005b34801561023a57600080fd5b5061024361072a565b6040518082815260200191505060405180910390f35b34801561026557600080fd5b506102e0600480360381019080803573ffffffffffffffffffffffffffffffffffffffff169060200190929190803590602001908201803590602001908080601f0160208091040260200160405190810160405280939291908181526020018383808284378201915050505050509192919290505050610730565b005b3480156102ee57600080fd5b50610331600480360381019080803573ffffffffffffffffffffffffffffffffffffffff169060200190929190803560001916906020019092919050505061094b565b005b34801561033f57600080fd5b50610348610b03565b604051808273ffffffffffffffffffffffffffffffffffffffff1673ffffffffffffffffffffffffffffffffffffffff16815260200191505060405180910390f35b34801561039657600080fd5b506103cb600480360381019080803573ffffffffffffffffffffffffffffffffffffffff169060200190929190505050610b28565b6040518082815260200191505060405180910390f35b3480156103ed57600080fd5b50610422600480360381019080803573ffffffffffffffffffffffffffffffffffffffff169060200190929190505050610b40565b604051808215151515815260200191505060405180910390f35b34801561044857600080fd5b5061046760048036038101908080359060200190929190505050610c94565b6040518080602001828103825283818151815260200191508051906020019080838360005b838110156104a757808201518184015260208101905061048c565b50505050905090810190601f1680156104d45780820380516001836020036101000a031916815260200191505b509250505060405180910390f35b3480156104ee57600080fd5b50610523600480360381019080803573ffffffffffffffffffffffffffffffffffffffff169060200190929190505050610d44565b005b60606003600061053484610dab565b81526020019081526020016000208054600181600116156101000203166002900480601f0160208091040260200160405190810160405280929190818152602001828054600181600116156101000203166002900480156105d65780601f106105ab576101008083540402835291602001916105d6565b820191906000526020600020905b8154815290600101906020018083116105b957829003601f168201915b50505050509050919050565b600060149054906101000a900460ff1681565b60026020528060005260406000206000915054906101000a900473ffffffffffffffffffffffffffffffffffffffff1681565b6000809054906101000a900473ffffffffffffffffffffffffffffffffffffffff1673ffffffffffffffffffffffffffffffffffffffff163373ffffffffffffffffffffffffffffffffffffffff1614151561068357600080fd5b6000809054906101000a900473ffffffffffffffffffffffffffffffffffffffff1673ffffffffffffffffffffffffffffffffffffffff167ff8df31144d9c2f0f6b59d69b8b98abd5459d07f2742c4df920b25aae33c6482060405160405180910390a260008060006101000a81548173ffffffffffffffffffffffffffffffffffffffff021916908373ffffffffffffffffffffffffffffffffffffffff160217905550565b60045481565b6000809054906101000a900473ffffffffffffffffffffffffffffffffffffffff1673ffffffffffffffffffffffffffffffffffffffff163373ffffffffffffffffffffffffffffffffffffffff1614151561078b57600080fd5b61079482610b40565b15151561082f576040517f08c379a00000000000000000000000000000000000000000000000000000000081526004018080602001828103825260248152602001807f416464726573732070726f766964656420697320616c7265616479206120646f81526020017f63746f720000000000000000000000000000000000000000000000000000000081525060400191505060405180910390fd5b600454600160008473ffffffffffffffffffffffffffffffffffffffff1673ffffffffffffffffffffffffffffffffffffffff168152602001908152602001600020819055508160026000600454815260200190815260200160002060006101000a81548173ffffffffffffffffffffffffffffffffffffffff021916908373ffffffffffffffffffffffffffffffffffffffff1602179055508060036000600454815260200190815260200160002090805190602001906108f29291906110b1565b5060016004600082825401925050819055508173ffffffffffffffffffffffffffffffffffffffff167fd7dde589abb8a41fcca4c7a4bf8bed17ba3e710f255c96b837ee54b745c6fca260405160405180910390a25050565b600060149054906101000a900460ff161515156109d0576040517f08c379a00000000000000000000000000000000000000000000000000000000081526004018080602001828103825260178152602001807f6d757374206e6f7420626520696e697469616c697a656400000000000000000081525060200191505060405180910390fd5b6109d8610f0f565b50336000806101000a81548173ffffffffffffffffffffffffffffffffffffffff021916908373ffffffffffffffffffffffffffffffffffffffff160217905550600454600160008073ffffffffffffffffffffffffffffffffffffffff1673ffffffffffffffffffffffffffffffffffffffff16815260200190815260200160002081905550600060026000600454815260200190815260200160002060006101000a81548173ffffffffffffffffffffffffffffffffffffffff021916908373ffffffffffffffffffffffffffffffffffffffff16021790555060206040519081016040528060008152506003600060045481526020019081526020016000209080519060200190610aed9291906110b1565b5060016004600082825401925050819055505050565b6000809054906101000a900473ffffffffffffffffffffffffffffffffffffffff1681565b60016020528060005260406000206000915090505481565b600080600073ffffffffffffffffffffffffffffffffffffffff168373ffffffffffffffffffffffffffffffffffffffff1614151515610be8576040517f08c379a00000000000000000000000000000000000000000000000000000000081526004018080602001828103825260208152602001807f446f63746f7220616464726573732070726f766964656420697320626c616e6b81525060200191505060405180910390fd5b600160008473ffffffffffffffffffffffffffffffffffffffff1673ffffffffffffffffffffffffffffffffffffffff1681526020019081526020016000205490508273ffffffffffffffffffffffffffffffffffffffff166002600083815260200190815260200160002060009054906101000a900473ffffffffffffffffffffffffffffffffffffffff1673ffffffffffffffffffffffffffffffffffffffff1614915050919050565b60036020528060005260406000206000915090508054600181600116156101000203166002900480601f016020809104026020016040519081016040528092919081815260200182805460018160011615610100020316600290048015610d3c5780601f10610d1157610100808354040283529160200191610d3c565b820191906000526020600020905b815481529060010190602001808311610d1f57829003601f168201915b505050505081565b6000809054906101000a900473ffffffffffffffffffffffffffffffffffffffff1673ffffffffffffffffffffffffffffffffffffffff163373ffffffffffffffffffffffffffffffffffffffff16141515610d9f57600080fd5b610da881610fb7565b50565b600080600073ffffffffffffffffffffffffffffffffffffffff168373ffffffffffffffffffffffffffffffffffffffff1614151515610e53576040517f08c379a00000000000000000000000000000000000000000000000000000000081526004018080602001828103825260208152602001807f446f63746f7220616464726573732070726f766964656420697320626c616e6b81525060200191505060405180910390fd5b600160008473ffffffffffffffffffffffffffffffffffffffff1673ffffffffffffffffffffffffffffffffffffffff1681526020019081526020016000205490508273ffffffffffffffffffffffffffffffffffffffff166002600083815260200190815260200160002060009054906101000a900473ffffffffffffffffffffffffffffffffffffffff1673ffffffffffffffffffffffffffffffffffffffff161415610f0457809150610f09565b600091505b50919050565b60008060149054906101000a900460ff16151515610f95576040517f08c379a00000000000000000000000000000000000000000000000000000000081526004018080602001828103825260178152602001807f6d757374206e6f7420626520696e697469616c697a656400000000000000000081525060200191505060405180910390fd5b6001600060146101000a81548160ff0219169083151502179055506001905090565b600073ffffffffffffffffffffffffffffffffffffffff168173ffffffffffffffffffffffffffffffffffffffff1614151515610ff357600080fd5b8073ffffffffffffffffffffffffffffffffffffffff166000809054906101000a900473ffffffffffffffffffffffffffffffffffffffff1673ffffffffffffffffffffffffffffffffffffffff167f8be0079c531659141344cd1fd0a4f28419497f9722a3daafe3b4186f6b6457e060405160405180910390a3806000806101000a81548173ffffffffffffffffffffffffffffffffffffffff021916908373ffffffffffffffffffffffffffffffffffffffff16021790555050565b828054600181600116156101000203166002900490600052602060002090601f016020900481019282601f106110f257805160ff1916838001178555611120565b82800160010185558215611120579182015b8281111561111f578251825591602001919060010190611104565b5b50905061112d9190611131565b5090565b61115391905b8082111561114f576000816000905550600101611137565b5090565b905600a165627a7a723058203f28d8dc09cb111bd2a9b757232d0bd4fa3ecec3e7616042a5bb500c5e16c1bb0029",
  "source": "pragma solidity ^0.4.23;\r\n\r\nimport \"zeppelin-solidity/contracts/ownership/Ownable.sol\";\r\nimport \"./Initializable.sol\";\r\nimport \"./DelegateTarget.sol\";\r\n\r\ncontract DoctorManager is Ownable, Initializable, DelegateTarget {\r\n\r\n    /*\r\n      MEMORY START\r\n      _do not_ remove any of these once they are deployed to a network (Ropsten,\r\n      Mainnet, etc.) and only append to the bottom (before the END comment)\r\n    */\r\n    mapping (address => uint256) public doctorIndices;\r\n    mapping (uint256 => address) public doctorAddresses;\r\n    mapping (uint256 => string) public doctorNames;\r\n\r\n    uint256 public doctorCount;\r\n    /*\r\n      MEMORY END\r\n      It is safe to add new data definitions here\r\n    */\r\n\r\n    event AddDoctor(address indexed doctor);\r\n    event DoctorDeactivated(address indexed doctor);\r\n    event DoctorReactivated(address indexed doctor);\r\n\r\n    function initializeTarget(address, bytes32) public notInitialized {\r\n        setInitialized();\r\n        owner = msg.sender;\r\n\r\n        doctorIndices[address(0)] = doctorCount;\r\n        doctorAddresses[doctorCount] = address(0);\r\n        doctorNames[doctorCount] = \"\";\r\n        doctorCount += 1;\r\n    }\r\n\r\n    function addDoctor(\r\n        address _doctor,\r\n        string _name\r\n    ) public onlyOwner {\r\n        require(!isDoctor(_doctor), \"Address provided is already a doctor\");\r\n        doctorIndices[_doctor] = doctorCount;\r\n        doctorAddresses[doctorCount] = _doctor;\r\n        doctorNames[doctorCount] = _name;\r\n        doctorCount += 1;\r\n        emit AddDoctor(_doctor);\r\n    }\r\n\r\n    function doctorIndex(address _doctor) private view returns (uint256) {\r\n        require(_doctor != address(0), \"Doctor address provided is blank\");\r\n        uint256 index = doctorIndices[_doctor];\r\n        if (doctorAddresses[index] == _doctor) {\r\n            return index;\r\n        } else {\r\n            return 0;\r\n        }\r\n    }\r\n\r\n    function isDoctor(address _doctor) public view returns (bool) {\r\n        require(_doctor != address(0), \"Doctor address provided is blank\");\r\n        uint256 index = doctorIndices[_doctor];\r\n        return doctorAddresses[index] == _doctor;\r\n    }\r\n\r\n    function name(address _doctor) public view returns (string) {\r\n        return doctorNames[doctorIndex(_doctor)];\r\n    }\r\n\r\n}\r\n",
  "sourcePath": "C:\\Users\\ryanp\\Documents\\projects\\OpenCoverage-dApp\\contracts\\DoctorManager.sol",
  "compiler": {
    "name": "solc",
    "version": "0.4.24+commit.e67f0147.Emscripten.clang"
  },
  "schemaVersion": "2.0.1",
  "updatedAt": "2018-11-09T03:12:42.824Z"
}