{
  "contractName": "Initializable",
  "abi": [
    {
      "constant": true,
      "inputs": [],
      "name": "initialized",
      "outputs": [
        {
          "name": "",
          "type": "bool"
        }
      ],
      "payable": false,
      "stateMutability": "view",
      "type": "function"
    }
  ],
  "bytecode": "0x608060405260008060006101000a81548160ff02191690831515021790555034801561002a57600080fd5b5060ae806100396000396000f300608060405260043610603f576000357c0100000000000000000000000000000000000000000000000000000000900463ffffffff168063158ef93e146044575b600080fd5b348015604f57600080fd5b5060566070565b604051808215151515815260200191505060405180910390f35b6000809054906101000a900460ff16815600a165627a7a7230582040dc59a03cd777a06bdac2de513cdabc83c703924ae602ae6ea9c3a96a5dfba70029",
  "source": "pragma solidity ^0.4.23;\r\n\r\ncontract Initializable {\r\n  bool public initialized = false;\r\n\r\n  modifier wasInitialized {\r\n    require(initialized, 'must be initialized');\r\n    _;\r\n  }\r\n\r\n  modifier notInitialized {\r\n    require(!initialized, 'must not be initialized');\r\n    _;\r\n  }\r\n\r\n  function setInitialized() internal notInitialized returns (bool) {\r\n    initialized = true;\r\n    return true;\r\n  }\r\n}\r\n",
  "sourcePath": "C:\\Users\\ryanp\\Documents\\projects\\OpenCoverage-dApp\\contracts\\Initializable.sol",
  "compiler": {
    "name": "solc",
    "version": "0.4.24+commit.e67f0147.Emscripten.clang"
  },
  "schemaVersion": "2.0.1",
  "updatedAt": "2018-12-04T02:09:37.700Z"
}