{
  "contractName": "PatientPolicy",
  "abi": [
    {
      "constant": true,
      "inputs": [],
      "name": "initialized",
      "outputs": [
        {
          "name": "",
          "type": "bool"
        }
      ],
      "payable": false,
      "stateMutability": "view",
      "type": "function"
    },
    {
      "constant": false,
      "inputs": [],
      "name": "renounceOwnership",
      "outputs": [],
      "payable": false,
      "stateMutability": "nonpayable",
      "type": "function"
    },
    {
      "constant": true,
      "inputs": [],
      "name": "owner",
      "outputs": [
        {
          "name": "",
          "type": "address"
        }
      ],
      "payable": false,
      "stateMutability": "view",
      "type": "function"
    },
    {
      "constant": true,
      "inputs": [],
      "name": "patientCount",
      "outputs": [
        {
          "name": "",
          "type": "uint256"
        }
      ],
      "payable": false,
      "stateMutability": "view",
      "type": "function"
    },
    {
      "constant": true,
      "inputs": [
        {
          "name": "",
          "type": "uint256"
        }
      ],
      "name": "patientNames",
      "outputs": [
        {
          "name": "",
          "type": "string"
        }
      ],
      "payable": false,
      "stateMutability": "view",
      "type": "function"
    },
    {
      "constant": true,
      "inputs": [
        {
          "name": "",
          "type": "address"
        }
      ],
      "name": "patientPolicies",
      "outputs": [
        {
          "name": "",
          "type": "string"
        }
      ],
      "payable": false,
      "stateMutability": "view",
      "type": "function"
    },
    {
      "constant": true,
      "inputs": [
        {
          "name": "",
          "type": "uint256"
        }
      ],
      "name": "patientAddresses",
      "outputs": [
        {
          "name": "",
          "type": "address"
        }
      ],
      "payable": false,
      "stateMutability": "view",
      "type": "function"
    },
    {
      "constant": true,
      "inputs": [
        {
          "name": "",
          "type": "address"
        }
      ],
      "name": "patientIndices",
      "outputs": [
        {
          "name": "",
          "type": "uint256"
        }
      ],
      "payable": false,
      "stateMutability": "view",
      "type": "function"
    },
    {
      "constant": true,
      "inputs": [],
      "name": "policyCount",
      "outputs": [
        {
          "name": "",
          "type": "uint256"
        }
      ],
      "payable": false,
      "stateMutability": "view",
      "type": "function"
    },
    {
      "constant": false,
      "inputs": [
        {
          "name": "_newOwner",
          "type": "address"
        }
      ],
      "name": "transferOwnership",
      "outputs": [],
      "payable": false,
      "stateMutability": "nonpayable",
      "type": "function"
    },
    {
      "payable": true,
      "stateMutability": "payable",
      "type": "fallback"
    },
    {
      "anonymous": false,
      "inputs": [
        {
          "indexed": true,
          "name": "patient",
          "type": "address"
        },
        {
          "indexed": false,
          "name": "policy",
          "type": "string"
        }
      ],
      "name": "AddPatientPolicy",
      "type": "event"
    },
    {
      "anonymous": false,
      "inputs": [
        {
          "indexed": true,
          "name": "previousOwner",
          "type": "address"
        }
      ],
      "name": "OwnershipRenounced",
      "type": "event"
    },
    {
      "anonymous": false,
      "inputs": [
        {
          "indexed": true,
          "name": "previousOwner",
          "type": "address"
        },
        {
          "indexed": true,
          "name": "newOwner",
          "type": "address"
        }
      ],
      "name": "OwnershipTransferred",
      "type": "event"
    },
    {
      "constant": false,
      "inputs": [
        {
          "name": "",
          "type": "address"
        },
        {
          "name": "",
          "type": "bytes32"
        }
      ],
      "name": "initializeTarget",
      "outputs": [],
      "payable": false,
      "stateMutability": "nonpayable",
      "type": "function"
    },
    {
      "constant": false,
      "inputs": [
        {
          "name": "_name",
          "type": "string"
        },
        {
          "name": "_policy",
          "type": "string"
        }
      ],
      "name": "addPatientPolicy",
      "outputs": [],
      "payable": true,
      "stateMutability": "payable",
      "type": "function"
    },
    {
      "constant": true,
      "inputs": [
        {
          "name": "_patient",
          "type": "address"
        }
      ],
      "name": "name",
      "outputs": [
        {
          "name": "",
          "type": "string"
        }
      ],
      "payable": false,
      "stateMutability": "view",
      "type": "function"
    },
    {
      "constant": true,
      "inputs": [
        {
          "name": "_patient",
          "type": "address"
        }
      ],
      "name": "isPatient",
      "outputs": [
        {
          "name": "",
          "type": "bool"
        }
      ],
      "payable": false,
      "stateMutability": "view",
      "type": "function"
    },
    {
      "constant": true,
      "inputs": [
        {
          "name": "_policy",
          "type": "string"
        }
      ],
      "name": "isPolicy",
      "outputs": [
        {
          "name": "",
          "type": "bool"
        }
      ],
      "payable": false,
      "stateMutability": "view",
      "type": "function"
    },
    {
      "constant": true,
      "inputs": [],
      "name": "getContractBalance",
      "outputs": [
        {
          "name": "",
          "type": "uint256"
        }
      ],
      "payable": false,
      "stateMutability": "view",
      "type": "function"
    },
    {
      "constant": false,
      "inputs": [
        {
          "name": "_requester",
          "type": "address"
        },
        {
          "name": "_reimbursement",
          "type": "uint256"
        }
      ],
      "name": "transferContractBalance",
      "outputs": [],
      "payable": false,
      "stateMutability": "nonpayable",
      "type": "function"
    }
  ],
  "bytecode": "0x608060405260008060146101000a81548160ff021916908315150217905550336000806101000a81548173ffffffffffffffffffffffffffffffffffffffff021916908373ffffffffffffffffffffffffffffffffffffffff1602179055506116dc8061006d6000396000f3006080604052600436106100f1576000357c0100000000000000000000000000000000000000000000000000000000900463ffffffff16806301984892146100f357806310a5a3d9146101af578063158ef93e146101fc5780636f9fb98a1461022b578063715018a6146102565780638aff0cd31461026d5780638da5cb5b146102be5780638f9c79ed14610315578063a0303c4114610370578063a3d46b621461039b578063a86ea94214610441578063a8d4fe6c146104fd578063b40f16911461059f578063d68912171461060c578063de54d42914610663578063f2fde38b1461068e578063f70e32f4146106d1575b005b3480156100ff57600080fd5b50610134600480360381019080803573ffffffffffffffffffffffffffffffffffffffff169060200190929190505050610752565b6040518080602001828103825283818151815260200191508051906020019080838360005b83811015610174578082015181840152602081019050610159565b50505050905090810190601f1680156101a15780820380516001836020036101000a031916815260200191505b509250505060405180910390f35b3480156101bb57600080fd5b506101fa600480360381019080803573ffffffffffffffffffffffffffffffffffffffff1690602001909291908035906020019092919050505061080f565b005b34801561020857600080fd5b506102116108ff565b604051808215151515815260200191505060405180910390f35b34801561023757600080fd5b50610240610912565b6040518082815260200191505060405180910390f35b34801561026257600080fd5b5061026b610931565b005b34801561027957600080fd5b506102bc600480360381019080803573ffffffffffffffffffffffffffffffffffffffff1690602001909291908035600019169060200190929190505050610a33565b005b3480156102ca57600080fd5b506102d3610c46565b604051808273ffffffffffffffffffffffffffffffffffffffff1673ffffffffffffffffffffffffffffffffffffffff16815260200191505060405180910390f35b34801561032157600080fd5b50610356600480360381019080803573ffffffffffffffffffffffffffffffffffffffff169060200190929190505050610c6b565b604051808215151515815260200191505060405180910390f35b34801561037c57600080fd5b50610385610c91565b6040518082815260200191505060405180910390f35b3480156103a757600080fd5b506103c660048036038101908080359060200190929190505050610c97565b6040518080602001828103825283818151815260200191508051906020019080838360005b838110156104065780820151818401526020810190506103eb565b50505050905090810190601f1680156104335780820380516001836020036101000a031916815260200191505b509250505060405180910390f35b34801561044d57600080fd5b50610482600480360381019080803573ffffffffffffffffffffffffffffffffffffffff169060200190929190505050610d47565b6040518080602001828103825283818151815260200191508051906020019080838360005b838110156104c25780820151818401526020810190506104a7565b50505050905090810190601f1680156104ef5780820380516001836020036101000a031916815260200191505b509250505060405180910390f35b61059d600480360381019080803590602001908201803590602001908080601f0160208091040260200160405190810160405280939291908181526020018383808284378201915050505050509192919290803590602001908201803590602001908080601f0160208091040260200160405190810160405280939291908181526020018383808284378201915050505050509192919290505050610df7565b005b3480156105ab57600080fd5b506105ca60048036038101908080359060200190929190505050611124565b604051808273ffffffffffffffffffffffffffffffffffffffff1673ffffffffffffffffffffffffffffffffffffffff16815260200191505060405180910390f35b34801561061857600080fd5b5061064d600480360381019080803573ffffffffffffffffffffffffffffffffffffffff169060200190929190505050611157565b6040518082815260200191505060405180910390f35b34801561066f57600080fd5b5061067861116f565b6040518082815260200191505060405180910390f35b34801561069a57600080fd5b506106cf600480360381019080803573ffffffffffffffffffffffffffffffffffffffff169060200190929190505050611175565b005b3480156106dd57600080fd5b50610738600480360381019080803590602001908201803590602001908080601f01602080910402602001604051908101604052809392919081815260200183838082843782019150505050505091929192905050506111dc565b604051808215151515815260200191505060405180910390f35b60606004600061076184611265565b81526020019081526020016000208054600181600116156101000203166002900480601f0160208091040260200160405190810160405280929190818152602001828054600181600116156101000203166002900480156108035780601f106107d857610100808354040283529160200191610803565b820191906000526020600020905b8154815290600101906020018083116107e657829003601f168201915b50505050509050919050565b80610818610912565b101515156108b4576040517f08c379a00000000000000000000000000000000000000000000000000000000081526004018080602001828103825260388152602001807f70617469656e7420706f6c69637920636f6e74726163742062616c616e63652081526020017f6c6f776572207468616e207265696d62757273656d656e74000000000000000081525060400191505060405180910390fd5b8173ffffffffffffffffffffffffffffffffffffffff166108fc829081150290604051600060405180830381858888f193505050501580156108fa573d6000803e3d6000fd5b505050565b600060149054906101000a900460ff1681565b60003073ffffffffffffffffffffffffffffffffffffffff1631905090565b6000809054906101000a900473ffffffffffffffffffffffffffffffffffffffff1673ffffffffffffffffffffffffffffffffffffffff163373ffffffffffffffffffffffffffffffffffffffff1614151561098c57600080fd5b6000809054906101000a900473ffffffffffffffffffffffffffffffffffffffff1673ffffffffffffffffffffffffffffffffffffffff167ff8df31144d9c2f0f6b59d69b8b98abd5459d07f2742c4df920b25aae33c6482060405160405180910390a260008060006101000a81548173ffffffffffffffffffffffffffffffffffffffff021916908373ffffffffffffffffffffffffffffffffffffffff160217905550565b600060149054906101000a900460ff16151515610ab8576040517f08c379a00000000000000000000000000000000000000000000000000000000081526004018080602001828103825260178152602001807f6d757374206e6f7420626520696e697469616c697a656400000000000000000081525060200191505060405180910390fd5b610ac06113c9565b50336000806101000a81548173ffffffffffffffffffffffffffffffffffffffff021916908373ffffffffffffffffffffffffffffffffffffffff160217905550600654600160008073ffffffffffffffffffffffffffffffffffffffff1673ffffffffffffffffffffffffffffffffffffffff168152602001908152602001600020819055506020604051908101604052806000815250600260008073ffffffffffffffffffffffffffffffffffffffff1673ffffffffffffffffffffffffffffffffffffffff1681526020019081526020016000209080519060200190610baa92919061160b565b50600060036000600654815260200190815260200160002060006101000a81548173ffffffffffffffffffffffffffffffffffffffff021916908373ffffffffffffffffffffffffffffffffffffffff16021790555060206040519081016040528060008152506004600060065481526020019081526020016000209080519060200190610c3992919061160b565b50610c42611471565b5050565b6000809054906101000a900473ffffffffffffffffffffffffffffffffffffffff1681565b600080610c7783611265565b141515610c875760019050610c8c565b600090505b919050565b60065481565b60046020528060005260406000206000915090508054600181600116156101000203166002900480601f016020809104026020016040519081016040528092919081815260200182805460018160011615610100020316600290048015610d3f5780601f10610d1457610100808354040283529160200191610d3f565b820191906000526020600020905b815481529060010190602001808311610d2257829003601f168201915b505050505081565b60026020528060005260406000206000915090508054600181600116156101000203166002900480601f016020809104026020016040519081016040528092919081815260200182805460018160011615610100020316600290048015610def5780601f10610dc457610100808354040283529160200191610def565b820191906000526020600020905b815481529060010190602001808311610dd257829003601f168201915b505050505081565b6000339050610e0581610c6b565b151515610ea0576040517f08c379a00000000000000000000000000000000000000000000000000000000081526004018080602001828103825260258152602001807f416464726573732070726f766964656420697320616c7265616479206120706181526020017f7469656e7400000000000000000000000000000000000000000000000000000081525060400191505060405180910390fd5b610ea9826111dc565b1515610f43576040517f08c379a00000000000000000000000000000000000000000000000000000000081526004018080602001828103825260268152602001807f506f6c696379206973206e6f74207265636f676e697a6564206279207468652081526020017f73797374656d000000000000000000000000000000000000000000000000000081525060400191505060405180910390fd5b6001600660008282540192505081905550600654600160008373ffffffffffffffffffffffffffffffffffffffff1673ffffffffffffffffffffffffffffffffffffffff168152602001908152602001600020819055508060036000600654815260200190815260200160002060006101000a81548173ffffffffffffffffffffffffffffffffffffffff021916908373ffffffffffffffffffffffffffffffffffffffff16021790555082600460006006548152602001908152602001600020908051906020019061101792919061160b565b5081600260008373ffffffffffffffffffffffffffffffffffffffff1673ffffffffffffffffffffffffffffffffffffffff168152602001908152602001600020908051906020019061106b92919061160b565b508073ffffffffffffffffffffffffffffffffffffffff167f968cd538959268f5cf2029f48290d03d4ac97e048f5d389cbb84de99d5e4857a836040518080602001828103825283818151815260200191508051906020019080838360005b838110156110e55780820151818401526020810190506110ca565b50505050905090810190601f1680156111125780820380516001836020036101000a031916815260200191505b509250505060405180910390a2505050565b60036020528060005260406000206000915054906101000a900473ffffffffffffffffffffffffffffffffffffffff1681565b60016020528060005260406000206000915090505481565b60075481565b6000809054906101000a900473ffffffffffffffffffffffffffffffffffffffff1673ffffffffffffffffffffffffffffffffffffffff163373ffffffffffffffffffffffffffffffffffffffff161415156111d057600080fd5b6111d981611511565b50565b6000806005836040518082805190602001908083835b60208310151561121757805182526020820191506020810190506020830392506111f2565b6001836020036101000a03801982511681845116808217855250505050505090500191505090815260200160405180910390205414151561125b5760019050611260565b600090505b919050565b600080600073ffffffffffffffffffffffffffffffffffffffff168373ffffffffffffffffffffffffffffffffffffffff161415151561130d576040517f08c379a00000000000000000000000000000000000000000000000000000000081526004018080602001828103825260208152602001807f446f63746f7220616464726573732070726f766964656420697320626c616e6b81525060200191505060405180910390fd5b600160008473ffffffffffffffffffffffffffffffffffffffff1673ffffffffffffffffffffffffffffffffffffffff1681526020019081526020016000205490508273ffffffffffffffffffffffffffffffffffffffff166003600083815260200190815260200160002060009054906101000a900473ffffffffffffffffffffffffffffffffffffffff1673ffffffffffffffffffffffffffffffffffffffff1614156113be578091506113c3565b600091505b50919050565b60008060149054906101000a900460ff1615151561144f576040517f08c379a00000000000000000000000000000000000000000000000000000000081526004018080602001828103825260178152602001807f6d757374206e6f7420626520696e697469616c697a656400000000000000000081525060200191505060405180910390fd5b6001600060146101000a81548160ff0219169083151502179055506001905090565b67016345785d8a0000600560405180807f410000000000000000000000000000000000000000000000000000000000000081525060010190509081526020016040518091039020819055506702c68af0bb140000600560405180807f420000000000000000000000000000000000000000000000000000000000000081525060010190509081526020016040518091039020819055506002600781905550565b600073ffffffffffffffffffffffffffffffffffffffff168173ffffffffffffffffffffffffffffffffffffffff161415151561154d57600080fd5b8073ffffffffffffffffffffffffffffffffffffffff166000809054906101000a900473ffffffffffffffffffffffffffffffffffffffff1673ffffffffffffffffffffffffffffffffffffffff167f8be0079c531659141344cd1fd0a4f28419497f9722a3daafe3b4186f6b6457e060405160405180910390a3806000806101000a81548173ffffffffffffffffffffffffffffffffffffffff021916908373ffffffffffffffffffffffffffffffffffffffff16021790555050565b828054600181600116156101000203166002900490600052602060002090601f016020900481019282601f1061164c57805160ff191683800117855561167a565b8280016001018555821561167a579182015b8281111561167957825182559160200191906001019061165e565b5b509050611687919061168b565b5090565b6116ad91905b808211156116a9576000816000905550600101611691565b5090565b905600a165627a7a72305820f2e602ee9ec2857860d246e2a28ba55284aeacefd752a4f76bd7fd019eb7d49b0029",
  "source": "pragma solidity ^0.4.23;\r\n\r\nimport \"zeppelin-solidity/contracts/ownership/Ownable.sol\";\r\nimport \"./Initializable.sol\";\r\nimport \"./DelegateTarget.sol\";\r\n\r\ncontract PatientPolicy is Ownable, Initializable, DelegateTarget {\r\n\r\n  /*\r\n    MEMORY START\r\n    _do not_ remove any of these once they are deployed to a network (Ropsten,\r\n    Mainnet, etc.) and only append to the bottom (before the END comment)\r\n  */\r\n  mapping (address => uint256) public patientIndices;\r\n  mapping (address => string) public patientPolicies;\r\n  mapping (uint256 => address) public patientAddresses;\r\n  mapping (uint256 => string) public patientNames;\r\n\r\n  mapping (string => uint256) admissiblePolicies;\r\n\r\n  uint256 public patientCount;\r\n  uint256 public policyCount;\r\n  /*\r\n    MEMORY END\r\n    It is safe to add new data definitions here\r\n  */\r\n\r\n  event AddPatientPolicy(address indexed patient, string policy );\r\n\r\n  function () public payable {\r\n  }\r\n\r\n  function initializeTarget(address, bytes32) public notInitialized {\r\n    setInitialized();\r\n    owner = msg.sender;\r\n\r\n    patientIndices[address(0)] = patientCount;\r\n    patientPolicies[address(0)] = '';\r\n    patientAddresses[patientCount] = address(0);\r\n    patientNames[patientCount] = '';\r\n    setAdmissiblePolicies();\r\n  }\r\n\r\n  function setAdmissiblePolicies() private {\r\n    admissiblePolicies['A'] = 100000000000000000;\r\n    admissiblePolicies['B'] = 200000000000000000;\r\n    policyCount = 2;\r\n  }\r\n\r\n  function addPatientPolicy(\r\n    string _name,\r\n    string _policy\r\n  ) public payable {\r\n    address _patient = msg.sender;\r\n\r\n    require(!isPatient(_patient), \"Address provided is already a patient\");\r\n    require(isPolicy(_policy), \"Policy is not recognized by the system\");\r\n    // require(msg.value == admissiblePolicies[_policy], \"Patient did not pay for the policy\");\r\n\r\n    patientCount += 1;\r\n    patientIndices[_patient] = patientCount;\r\n    patientAddresses[patientCount] = _patient;\r\n    patientNames[patientCount] = _name;\r\n    patientPolicies[_patient] = _policy;\r\n    emit AddPatientPolicy(_patient, _policy);\r\n  }\r\n\r\n  function patientIndex(address _patient) private view returns (uint256) {\r\n    require(_patient != address(0), \"Doctor address provided is blank\");\r\n    uint256 index = patientIndices[_patient];\r\n    if (patientAddresses[index] == _patient) {\r\n      return index;\r\n    } else {\r\n      return 0;\r\n    }\r\n  }\r\n\r\n  function getPatientPolicy(address _patient) private view returns (string) {\r\n    require(_patient != address(0) && patientIndex(_patient) != 0, \"Doctor address provided is blank\");\r\n    return patientPolicies[_patient];\r\n  }\r\n\r\n  function name(address _patient) public view returns (string) {\r\n    return patientNames[patientIndex(_patient)];\r\n  }\r\n\r\n  function isPatient(address _patient) public view returns (bool) {\r\n    if (patientIndex(_patient) != 0) {\r\n        return true;\r\n    }\r\n    return false;\r\n  }\r\n\r\n  function isPolicy(string _policy) public view returns (bool) {\r\n    if (admissiblePolicies[_policy] != 0) {\r\n        return true;\r\n    }\r\n    return false;\r\n  }\r\n\r\n  function getContractBalance() public view returns (uint256) {\r\n      return address(this).balance;\r\n  }\r\n\r\n  function transferContractBalance(address _requester, uint256 _reimbursement) public {\r\n      require(getContractBalance() >= _reimbursement, \"patient policy contract balance lower than reimbursement\");\r\n      _requester.transfer(_reimbursement);\r\n  }\r\n\r\n\r\n}\r\n",
  "sourcePath": "C:\\Users\\ryanp\\Documents\\projects\\OpenCoverage-dApp\\contracts\\PatientPolicy.sol",
  "compiler": {
    "name": "solc",
    "version": "0.4.24+commit.e67f0147.Emscripten.clang"
  },
  "schemaVersion": "2.0.1",
  "updatedAt": "2018-11-09T03:12:42.834Z"
}